{"abi":[{"type":"function","name":"emitAccountCreated","inputs":[{"name":"lensAccountAddress","type":"address","internalType":"address"},{"name":"pkpAddress","type":"address","internalType":"address"},{"name":"username","type":"string","internalType":"string"},{"name":"metadataUri","type":"string","internalType":"string"},{"name":"geniusArtistId","type":"uint32","internalType":"uint32"}],"outputs":[],"stateMutability":"nonpayable"},{"type":"function","name":"emitAccountMetadataUpdated","inputs":[{"name":"lensAccountAddress","type":"address","internalType":"address"},{"name":"metadataUri","type":"string","internalType":"string"}],"outputs":[],"stateMutability":"nonpayable"},{"type":"function","name":"emitAccountVerified","inputs":[{"name":"lensAccountAddress","type":"address","internalType":"address"},{"name":"verified","type":"bool","internalType":"bool"}],"outputs":[],"stateMutability":"nonpayable"},{"type":"event","name":"AccountCreated","inputs":[{"name":"lensAccountAddress","type":"address","indexed":true,"internalType":"address"},{"name":"pkpAddress","type":"address","indexed":true,"internalType":"address"},{"name":"username","type":"string","indexed":false,"internalType":"string"},{"name":"metadataUri","type":"string","indexed":false,"internalType":"string"},{"name":"geniusArtistId","type":"uint32","indexed":false,"internalType":"uint32"},{"name":"timestamp","type":"uint64","indexed":false,"internalType":"uint64"}],"anonymous":false},{"type":"event","name":"AccountMetadataUpdated","inputs":[{"name":"lensAccountAddress","type":"address","indexed":true,"internalType":"address"},{"name":"metadataUri","type":"string","indexed":false,"internalType":"string"},{"name":"updatedBy","type":"address","indexed":true,"internalType":"address"},{"name":"timestamp","type":"uint64","indexed":false,"internalType":"uint64"}],"anonymous":false},{"type":"event","name":"AccountVerified","inputs":[{"name":"lensAccountAddress","type":"address","indexed":true,"internalType":"address"},{"name":"verified","type":"bool","indexed":false,"internalType":"bool"},{"name":"verifiedBy","type":"address","indexed":true,"internalType":"address"},{"name":"timestamp","type":"uint64","indexed":false,"internalType":"uint64"}],"anonymous":false}],"bytecode":{"object":"0x608060405234801561001057600080fd5b50610408806100206000396000f3fe608060405234801561001057600080fd5b50600436106100415760003560e01c80632e1261b51461004657806388e9467c1461005b5780639163b0221461006e575b600080fd5b6100596100543660046101a4565b610081565b005b610059610069366004610229565b6100d6565b61005961007c36600461027c565b61012a565b60408051821515815267ffffffffffffffff4216602082015233916001600160a01b038516917fd2863c4ac1fc172962593871d7f950d40aed9034d4958bc25a55207c72ffbaad910160405180910390a35050565b336001600160a01b0316836001600160a01b03167f1458a0d37c96ffca18b863d096c5f4544527c05ac61df76fb2c2812ebaee468784844260405161011d93929190610353565b60405180910390a3505050565b856001600160a01b0316876001600160a01b03167f068995dd508b4bebc943651606e9d49e7f53f9e7f00c93d526bfd5e1b32ea7d887878787874260405161017796959493929190610381565b60405180910390a350505050505050565b80356001600160a01b038116811461019f57600080fd5b919050565b600080604083850312156101b757600080fd5b6101c083610188565b9150602083013580151581146101d557600080fd5b809150509250929050565b60008083601f8401126101f257600080fd5b50813567ffffffffffffffff81111561020a57600080fd5b60208301915083602082850101111561022257600080fd5b9250929050565b60008060006040848603121561023e57600080fd5b61024784610188565b9250602084013567ffffffffffffffff81111561026357600080fd5b61026f868287016101e0565b9497909650939450505050565b600080600080600080600060a0888a03121561029757600080fd5b6102a088610188565b96506102ae60208901610188565b9550604088013567ffffffffffffffff808211156102cb57600080fd5b6102d78b838c016101e0565b909750955060608a01359150808211156102f057600080fd5b506102fd8a828b016101e0565b909450925050608088013563ffffffff8116811461031a57600080fd5b8091505092959891949750929550565b81835281816020850137506000828201602090810191909152601f909101601f19169091010190565b60408152600061036760408301858761032a565b905067ffffffffffffffff83166020830152949350505050565b60808152600061039560808301888a61032a565b82810360208401526103a881878961032a565b91505063ffffffff8416604083015267ffffffffffffffff8316606083015297965050505050505056fea2646970667358221220d3baca5ae6397580957501655e76ab578aeba7be8fec6c7bfb517bee2d2c13c064736f6c63430008130033","linkReferences":{}},"methodIdentifiers":{"emitAccountCreated(address,address,string,string,uint32)":"9163b022","emitAccountMetadataUpdated(address,string)":"88e9467c","emitAccountVerified(address,bool)":"2e1261b5"},"id":16}