{"abi":[{"type":"constructor","inputs":[{"name":"_trustedPKP","type":"address","internalType":"address"}],"stateMutability":"nonpayable"},{"type":"function","name":"emitTranslationQuestionRegistered","inputs":[{"name":"questionId","type":"bytes32","internalType":"bytes32"},{"name":"lineId","type":"bytes32","internalType":"bytes32"},{"name":"segmentHash","type":"bytes32","internalType":"bytes32"},{"name":"spotifyTrackId","type":"string","internalType":"string"},{"name":"lineIndex","type":"uint16","internalType":"uint16"},{"name":"languageCode","type":"string","internalType":"string"},{"name":"metadataUri","type":"string","internalType":"string"},{"name":"distractorPoolSize","type":"uint16","internalType":"uint16"}],"outputs":[],"stateMutability":"nonpayable"},{"type":"function","name":"emitTriviaQuestionRegistered","inputs":[{"name":"questionId","type":"bytes32","internalType":"bytes32"},{"name":"spotifyTrackId","type":"string","internalType":"string"},{"name":"languageCode","type":"string","internalType":"string"},{"name":"metadataUri","type":"string","internalType":"string"},{"name":"distractorPoolSize","type":"uint16","internalType":"uint16"}],"outputs":[],"stateMutability":"nonpayable"},{"type":"function","name":"gradeMultipleChoiceAttempt","inputs":[{"name":"attemptId","type":"uint256","internalType":"uint256"},{"name":"questionId","type":"bytes32","internalType":"bytes32"},{"name":"learner","type":"address","internalType":"address"},{"name":"score","type":"uint16","internalType":"uint16"},{"name":"rating","type":"uint8","internalType":"uint8"},{"name":"metadataUri","type":"string","internalType":"string"}],"outputs":[],"stateMutability":"nonpayable"},{"type":"function","name":"gradeSayItBackAttempt","inputs":[{"name":"attemptId","type":"uint256","internalType":"uint256"},{"name":"lineId","type":"bytes32","internalType":"bytes32"},{"name":"segmentHash","type":"bytes32","internalType":"bytes32"},{"name":"lineIndex","type":"uint16","internalType":"uint16"},{"name":"learner","type":"address","internalType":"address"},{"name":"score","type":"uint16","internalType":"uint16"},{"name":"rating","type":"uint8","internalType":"uint8"},{"name":"metadataUri","type":"string","internalType":"string"}],"outputs":[],"stateMutability":"nonpayable"},{"type":"function","name":"owner","inputs":[],"outputs":[{"name":"","type":"address","internalType":"address"}],"stateMutability":"view"},{"type":"function","name":"paused","inputs":[],"outputs":[{"name":"","type":"bool","internalType":"bool"}],"stateMutability":"view"},{"type":"function","name":"setPaused","inputs":[{"name":"_paused","type":"bool","internalType":"bool"}],"outputs":[],"stateMutability":"nonpayable"},{"type":"function","name":"setTrustedPKP","inputs":[{"name":"newPKP","type":"address","internalType":"address"}],"outputs":[],"stateMutability":"nonpayable"},{"type":"function","name":"toggleQuestion","inputs":[{"name":"questionId","type":"bytes32","internalType":"bytes32"},{"name":"enabled","type":"bool","internalType":"bool"}],"outputs":[],"stateMutability":"nonpayable"},{"type":"function","name":"transferOwnership","inputs":[{"name":"newOwner","type":"address","internalType":"address"}],"outputs":[],"stateMutability":"nonpayable"},{"type":"function","name":"trustedPKP","inputs":[],"outputs":[{"name":"","type":"address","internalType":"address"}],"stateMutability":"view"},{"type":"event","name":"MultipleChoiceAttemptGraded","inputs":[{"name":"attemptId","type":"uint256","indexed":true,"internalType":"uint256"},{"name":"questionId","type":"bytes32","indexed":true,"internalType":"bytes32"},{"name":"learner","type":"address","indexed":true,"internalType":"address"},{"name":"score","type":"uint16","indexed":false,"internalType":"uint16"},{"name":"rating","type":"uint8","indexed":false,"internalType":"uint8"},{"name":"metadataUri","type":"string","indexed":false,"internalType":"string"},{"name":"timestamp","type":"uint64","indexed":false,"internalType":"uint64"}],"anonymous":false},{"type":"event","name":"PausedUpdated","inputs":[{"name":"paused","type":"bool","indexed":false,"internalType":"bool"}],"anonymous":false},{"type":"event","name":"QuestionToggled","inputs":[{"name":"questionId","type":"bytes32","indexed":true,"internalType":"bytes32"},{"name":"enabled","type":"bool","indexed":false,"internalType":"bool"},{"name":"toggledBy","type":"address","indexed":true,"internalType":"address"},{"name":"timestamp","type":"uint64","indexed":false,"internalType":"uint64"}],"anonymous":false},{"type":"event","name":"SayItBackAttemptGraded","inputs":[{"name":"attemptId","type":"uint256","indexed":true,"internalType":"uint256"},{"name":"lineId","type":"bytes32","indexed":true,"internalType":"bytes32"},{"name":"segmentHash","type":"bytes32","indexed":true,"internalType":"bytes32"},{"name":"lineIndex","type":"uint16","indexed":false,"internalType":"uint16"},{"name":"learner","type":"address","indexed":false,"internalType":"address"},{"name":"score","type":"uint16","indexed":false,"internalType":"uint16"},{"name":"rating","type":"uint8","indexed":false,"internalType":"uint8"},{"name":"metadataUri","type":"string","indexed":false,"internalType":"string"},{"name":"timestamp","type":"uint64","indexed":false,"internalType":"uint64"}],"anonymous":false},{"type":"event","name":"TranslationQuestionRegistered","inputs":[{"name":"questionId","type":"bytes32","indexed":true,"internalType":"bytes32"},{"name":"lineId","type":"bytes32","indexed":true,"internalType":"bytes32"},{"name":"segmentHash","type":"bytes32","indexed":true,"internalType":"bytes32"},{"name":"spotifyTrackId","type":"string","indexed":false,"internalType":"string"},{"name":"lineIndex","type":"uint16","indexed":false,"internalType":"uint16"},{"name":"languageCode","type":"string","indexed":false,"internalType":"string"},{"name":"metadataUri","type":"string","indexed":false,"internalType":"string"},{"name":"distractorPoolSize","type":"uint16","indexed":false,"internalType":"uint16"},{"name":"registeredBy","type":"address","indexed":false,"internalType":"address"},{"name":"timestamp","type":"uint64","indexed":false,"internalType":"uint64"}],"anonymous":false},{"type":"event","name":"TriviaQuestionRegistered","inputs":[{"name":"questionId","type":"bytes32","indexed":true,"internalType":"bytes32"},{"name":"spotifyTrackId","type":"string","indexed":false,"internalType":"string"},{"name":"languageCode","type":"string","indexed":false,"internalType":"string"},{"name":"metadataUri","type":"string","indexed":false,"internalType":"string"},{"name":"distractorPoolSize","type":"uint16","indexed":false,"internalType":"uint16"},{"name":"registeredBy","type":"address","indexed":true,"internalType":"address"},{"name":"timestamp","type":"uint64","indexed":false,"internalType":"uint64"}],"anonymous":false},{"type":"event","name":"TrustedPKPUpdated","inputs":[{"name":"oldPKP","type":"address","indexed":true,"internalType":"address"},{"name":"newPKP","type":"address","indexed":true,"internalType":"address"}],"anonymous":false},{"type":"error","name":"ContractPaused","inputs":[]},{"type":"error","name":"InvalidAddress","inputs":[]},{"type":"error","name":"InvalidDistractorPool","inputs":[]},{"type":"error","name":"InvalidQuestionId","inputs":[]},{"type":"error","name":"InvalidRating","inputs":[]},{"type":"error","name":"InvalidScore","inputs":[]},{"type":"error","name":"NotOwner","inputs":[]},{"type":"error","name":"NotTrustedPKP","inputs":[]}],"bytecode":{"object":"0x60803461009e57601f610a2538819003918201601f19168301916001600160401b038311848410176100a35780849260209460405283398101031261009e57516001600160a01b0381169081900361009e57801561008c57600080546001600160a01b03191633179055600180546001600160a81b03191691909117905560405161096b90816100ba8239f35b60405163e6c4247b60e01b8152600490fd5b600080fd5b634e487b7160e01b600052604160045260246000fdfe6080604081815260048036101561001557600080fd5b600092833560e01c90816314e19b30146107335750806316c38b3c146106b75780634447e9101461068e5780635c975abb1461066757806371a1c4f3146105cf5780638da5cb5b146105a35780639d2fe19f14610439578063ae6c843b146103b4578063b2569c191461024e578063c52023fe146101065763f2fde38b1461009c57600080fd5b34610102576020366003190112610102576100b56108d0565b835491906001600160a01b039081841633036100f257169283156100e55750506001600160a01b03191617815580f35b5163e6c4247b60e01b8152fd5b84516330cd747160e01b81528390fd5b8280fd5b5090346101025760a03660031901126101025781359067ffffffffffffffff60243581811161024a5761013c90369086016108e6565b92906044358381116102465761015590369088016108e6565b91906064358581116102425761016e9036908a016108e6565b9390926101796108bf565b60ff60015460a01c166102325789156102225782156102225761ffff169960038b1061021457506101fe94928694926101e36101f1937f0bd2765d67da9eaa9cb2c443c65fc347134dcfeb08e32eec7e6580e877b6a4a19b9a99519a60a08c5260a08c0191610914565b9189830360208b0152610914565b9286840390870152610914565b946060830152421660808201528033940390a380f35b865163eb14b35560e01b8152fd5b8651633fa9e8b960e11b81528b90fd5b865163ab35696f60e01b81528b90fd5b8980fd5b8780fd5b8580fd5b5090346101025760c0366003190112610102576044356001600160a01b0381811693602435938135938690036103b0576102866108a9565b926084359360ff85168095036103ac5767ffffffffffffffff9260a4358481116103a8576102b790369087016108e6565b92909360015490811633036103985760a01c60ff166103885787156103785788156103785789156103685761ffff1694612710861161035a576003871161034c57509161033e916080847f4eb1ef35d92542c425ae2b5a3f03d17190b7070ef14471722ad76baff6cf85a29897969551978897885260208801528601526080850191610914565b90421660608301520390a480f35b905163d29df2dd60e01b8152fd5b9051631556136560e01b8152fd5b815163e6c4247b60e01b81528690fd5b8151633fa9e8b960e11b81528690fd5b815163ab35696f60e01b81528690fd5b8251631e52bf5160e31b81528790fd5b8a80fd5b8880fd5b8680fd5b5034610102576020366003190112610102576103ce6108d0565b83546001600160a01b039291908316330361042a5782169283156100e5575050816001549182167fc08238709e9b5835f3e7631917066897cb07f35fd8e24ad8495849e6000a5eac8580a36001600160a01b0319161760015580f35b5082516330cd747160e01b8152fd5b50903461010257610100366003190112610102578135602435916064359067ffffffffffffffff918281116103b05761047590369087016108e6565b9590916104806108bf565b9060a4358581116102425761049890369085016108e6565b9160c43587811161059f576104b090369087016108e6565b95909660e4359b8c9261ffff809416809e0361059b5760ff60015460a01c1661058d578b1561057f578c1561057f57861561057f5760038e1061057157509383610553979361053260e09b98947fdff7604ff7611b1bafaee0e1d60452e4b2fb2ba0d7728127f509f91f2a3414979d9b9861054598519d8e8181520191610914565b941660208b0152898403908a0152610914565b918583036060870152610914565b9560808301523360a0830152421660c082015280604435950390a480f35b845163eb14b35560e01b8152fd5b8451633fa9e8b960e11b8152fd5b845163ab35696f60e01b8152fd5b8e80fd5b8b80fd5b5050346105cb57816003193601126105cb57905490516001600160a01b039091168152602090f35b5080fd5b509034610102578060031936011261010257813590602435928315158094036106635784546001600160a01b031633036106555782156106475750807ff8512b95541dbf26bee3674506b418665c47442e72b829b1bd4fb00207274129915193845267ffffffffffffffff421660208501523393a380f35b9051633fa9e8b960e11b8152fd5b90516330cd747160e01b8152fd5b8480fd5b5050346105cb57816003193601126105cb5760209060ff60015460a01c1690519015158152f35b5050346105cb57816003193601126105cb5760015490516001600160a01b039091168152602090f35b5090346101025760203660031901126101025781359182151580930361072f5783546001600160a01b0316330361065557506001805460ff60a01b191660a084901b60ff60a01b16179055519081527f31311016d7204faff81880133e3db244ae8a8b9ce15e83e2432258226d15f94290602090a180f35b8380fd5b919290503461072f5761010036600319011261072f57823590602435926107586108a9565b916001600160a01b039060843582811691908290036103ac5760a4359061ffff928383168093036103a85760c4359360ff851680950361059f5767ffffffffffffffff9a60e4358c81116108a5576107b390369083016108e6565b9790986001549182163303610897575060a01c60ff1661088957891561087b578a1561087b57821561086d57612710851161085f576003861161085157508251971687526020870152850152606084015260c0608084018190527ffd0c88cfb00afef3b3f22c783b93dc1f64f323b60574e910395c1fc9a2f27544939261083e929184019190610914565b94421660a082015280604435950390a480f35b835163d29df2dd60e01b8152fd5b8351631556136560e01b8152fd5b835163e6c4247b60e01b8152fd5b8351633fa9e8b960e11b8152fd5b835163ab35696f60e01b8152fd5b631e52bf5160e31b81529050fd5b8d80fd5b6064359061ffff821682036108ba57565b600080fd5b6084359061ffff821682036108ba57565b600435906001600160a01b03821682036108ba57565b9181601f840112156108ba5782359167ffffffffffffffff83116108ba57602083818601950101116108ba57565b908060209392818452848401376000828201840152601f01601f191601019056fea26469706673582212200e9332b37dd9d847c1238e3149be5b967cf7cb432403aa8efc7f46507fed4ba864736f6c63430008130033","linkReferences":{}},"methodIdentifiers":{"emitTranslationQuestionRegistered(bytes32,bytes32,bytes32,string,uint16,string,string,uint16)":"9d2fe19f","emitTriviaQuestionRegistered(bytes32,string,string,string,uint16)":"c52023fe","gradeMultipleChoiceAttempt(uint256,bytes32,address,uint16,uint8,string)":"b2569c19","gradeSayItBackAttempt(uint256,bytes32,bytes32,uint16,address,uint16,uint8,string)":"14e19b30","owner()":"8da5cb5b","paused()":"5c975abb","setPaused(bool)":"16c38b3c","setTrustedPKP(address)":"ae6c843b","toggleQuestion(bytes32,bool)":"71a1c4f3","transferOwnership(address)":"f2fde38b","trustedPKP()":"4447e910"},"id":17}