{"abi":[{"type":"function","name":"emitLineRegistered","inputs":[{"name":"segmentHash","type":"bytes32","internalType":"bytes32"},{"name":"lineId","type":"bytes32","internalType":"bytes32"},{"name":"spotifyTrackId","type":"string","internalType":"string"},{"name":"lineIndex","type":"uint16","internalType":"uint16"},{"name":"startMs","type":"uint32","internalType":"uint32"},{"name":"endMs","type":"uint32","internalType":"uint32"},{"name":"originalText","type":"string","internalType":"string"},{"name":"wordCount","type":"uint8","internalType":"uint8"},{"name":"metadataUri","type":"string","internalType":"string"}],"outputs":[],"stateMutability":"nonpayable"},{"type":"function","name":"emitLineUpdated","inputs":[{"name":"lineId","type":"bytes32","internalType":"bytes32"},{"name":"startMs","type":"uint32","internalType":"uint32"},{"name":"endMs","type":"uint32","internalType":"uint32"},{"name":"originalText","type":"string","internalType":"string"},{"name":"wordCount","type":"uint8","internalType":"uint8"},{"name":"metadataUri","type":"string","internalType":"string"}],"outputs":[],"stateMutability":"nonpayable"},{"type":"function","name":"getLineId","inputs":[{"name":"uuidBytes","type":"bytes32","internalType":"bytes32"}],"outputs":[{"name":"","type":"bytes32","internalType":"bytes32"}],"stateMutability":"pure"},{"type":"event","name":"LineRegistered","inputs":[{"name":"segmentHash","type":"bytes32","indexed":true,"internalType":"bytes32"},{"name":"lineId","type":"bytes32","indexed":true,"internalType":"bytes32"},{"name":"spotifyTrackId","type":"string","indexed":false,"internalType":"string"},{"name":"lineIndex","type":"uint16","indexed":false,"internalType":"uint16"},{"name":"startMs","type":"uint32","indexed":false,"internalType":"uint32"},{"name":"endMs","type":"uint32","indexed":false,"internalType":"uint32"},{"name":"originalText","type":"string","indexed":false,"internalType":"string"},{"name":"wordCount","type":"uint8","indexed":false,"internalType":"uint8"},{"name":"metadataUri","type":"string","indexed":false,"internalType":"string"},{"name":"registeredBy","type":"address","indexed":true,"internalType":"address"},{"name":"timestamp","type":"uint64","indexed":false,"internalType":"uint64"}],"anonymous":false},{"type":"event","name":"LineUpdated","inputs":[{"name":"lineId","type":"bytes32","indexed":true,"internalType":"bytes32"},{"name":"startMs","type":"uint32","indexed":false,"internalType":"uint32"},{"name":"endMs","type":"uint32","indexed":false,"internalType":"uint32"},{"name":"originalText","type":"string","indexed":false,"internalType":"string"},{"name":"wordCount","type":"uint8","indexed":false,"internalType":"uint8"},{"name":"metadataUri","type":"string","indexed":false,"internalType":"string"},{"name":"timestamp","type":"uint64","indexed":false,"internalType":"uint64"}],"anonymous":false}],"bytecode":{"object":"0x608060405234801561001057600080fd5b50610518806100206000396000f3fe608060405234801561001057600080fd5b50600436106100415760003560e01c80637894346a14610046578063b2c8ef5d1461005b578063c4a453c41461006e575b600080fd5b6100596100543660046101ff565b610093565b005b610059610069366004610304565b6100f8565b61008161007c3660046103b2565b610148565b60405190815260200160405180910390f35b336001600160a01b03168b8d7fd35e108dccef2befbb768c20b9cc2ff6f1c0502cca75626d7e72693ba71e68a98d8d8d8d8d8d8d8d8d8d426040516100e29b9a999897969594939291906103f4565b60405180910390a4505050505050505050505050565b877fef07fc606767cd8fd58b07b71837171fbd5684120ab8dafc5e6da7095aec37ff888888888888884260405161013698979695949392919061047c565b60405180910390a25050505050505050565b60008160405160200161015d91815260200190565b604051602081830303815290604052805190602001209050919050565b60008083601f84011261018c57600080fd5b50813567ffffffffffffffff8111156101a457600080fd5b6020830191508360208285010111156101bc57600080fd5b9250929050565b803561ffff811681146101d557600080fd5b919050565b803563ffffffff811681146101d557600080fd5b803560ff811681146101d557600080fd5b6000806000806000806000806000806000806101208d8f03121561022257600080fd5b8c359b5060208d01359a5067ffffffffffffffff60408e0135111561024657600080fd5b6102568e60408f01358f0161017a565b909a50985061026760608e016101c3565b975061027560808e016101da565b965061028360a08e016101da565b955067ffffffffffffffff60c08e0135111561029e57600080fd5b6102ae8e60c08f01358f0161017a565b90955093506102bf60e08e016101ee565b925067ffffffffffffffff6101008e013511156102db57600080fd5b6102ec8e6101008f01358f0161017a565b81935080925050509295989b509295989b509295989b565b60008060008060008060008060c0898b03121561032057600080fd5b8835975061033060208a016101da565b965061033e60408a016101da565b9550606089013567ffffffffffffffff8082111561035b57600080fd5b6103678c838d0161017a565b909750955085915061037b60808c016101ee565b945060a08b013591508082111561039157600080fd5b5061039e8b828c0161017a565b999c989b5096995094979396929594505050565b6000602082840312156103c457600080fd5b5035919050565b81835281816020850137506000828201602090810191909152601f909101601f19169091010190565b6101008152600061040a61010083018d8f6103cb565b61ffff8c16602084015263ffffffff8b811660408501528a166060840152828103608084015261043b81898b6103cb565b905060ff871660a084015282810360c08401526104598186886103cb565b91505067ffffffffffffffff831660e08301529c9b505050505050505050505050565b600063ffffffff808b168352808a1660208401525060c060408301526104a660c08301888a6103cb565b60ff8716606084015282810360808401526104c28186886103cb565b91505067ffffffffffffffff831660a0830152999850505050505050505056fea2646970667358221220bc1f6050dd291f70f301b287073b27bcb44346663577d92327ba2f429d1d96d264736f6c63430008130033","linkReferences":{}},"methodIdentifiers":{"emitLineRegistered(bytes32,bytes32,string,uint16,uint32,uint32,string,uint8,string)":"7894346a","emitLineUpdated(bytes32,uint32,uint32,string,uint8,string)":"b2c8ef5d","getLineId(bytes32)":"c4a453c4"},"id":0}