{"abi":[{"type":"constructor","inputs":[{"name":"_trustedPKP","type":"address","internalType":"address"}],"stateMutability":"nonpayable"},{"type":"function","name":"gradePerformance","inputs":[{"name":"performanceId","type":"uint256","internalType":"uint256"},{"name":"segmentHash","type":"bytes32","internalType":"bytes32"},{"name":"performer","type":"address","internalType":"address"},{"name":"score","type":"uint16","internalType":"uint16"},{"name":"metadataUri","type":"string","internalType":"string"}],"outputs":[],"stateMutability":"nonpayable"},{"type":"function","name":"owner","inputs":[],"outputs":[{"name":"","type":"address","internalType":"address"}],"stateMutability":"view"},{"type":"function","name":"paused","inputs":[],"outputs":[{"name":"","type":"bool","internalType":"bool"}],"stateMutability":"view"},{"type":"function","name":"setPaused","inputs":[{"name":"_paused","type":"bool","internalType":"bool"}],"outputs":[],"stateMutability":"nonpayable"},{"type":"function","name":"setTrustedPKP","inputs":[{"name":"newPKP","type":"address","internalType":"address"}],"outputs":[],"stateMutability":"nonpayable"},{"type":"function","name":"submitPerformance","inputs":[{"name":"performanceId","type":"uint256","internalType":"uint256"},{"name":"segmentHash","type":"bytes32","internalType":"bytes32"},{"name":"performer","type":"address","internalType":"address"},{"name":"videoUri","type":"string","internalType":"string"}],"outputs":[],"stateMutability":"nonpayable"},{"type":"function","name":"transferOwnership","inputs":[{"name":"newOwner","type":"address","internalType":"address"}],"outputs":[],"stateMutability":"nonpayable"},{"type":"function","name":"trustedPKP","inputs":[],"outputs":[{"name":"","type":"address","internalType":"address"}],"stateMutability":"view"},{"type":"event","name":"PausedUpdated","inputs":[{"name":"paused","type":"bool","indexed":false,"internalType":"bool"}],"anonymous":false},{"type":"event","name":"PerformanceGraded","inputs":[{"name":"performanceId","type":"uint256","indexed":true,"internalType":"uint256"},{"name":"segmentHash","type":"bytes32","indexed":true,"internalType":"bytes32"},{"name":"performer","type":"address","indexed":true,"internalType":"address"},{"name":"score","type":"uint16","indexed":false,"internalType":"uint16"},{"name":"metadataUri","type":"string","indexed":false,"internalType":"string"},{"name":"timestamp","type":"uint64","indexed":false,"internalType":"uint64"}],"anonymous":false},{"type":"event","name":"PerformanceSubmitted","inputs":[{"name":"performanceId","type":"uint256","indexed":true,"internalType":"uint256"},{"name":"segmentHash","type":"bytes32","indexed":true,"internalType":"bytes32"},{"name":"performer","type":"address","indexed":true,"internalType":"address"},{"name":"videoUri","type":"string","indexed":false,"internalType":"string"},{"name":"timestamp","type":"uint64","indexed":false,"internalType":"uint64"}],"anonymous":false},{"type":"event","name":"TrustedPKPUpdated","inputs":[{"name":"oldPKP","type":"address","indexed":true,"internalType":"address"},{"name":"newPKP","type":"address","indexed":true,"internalType":"address"}],"anonymous":false},{"type":"error","name":"ContractPaused","inputs":[]},{"type":"error","name":"InvalidAddress","inputs":[]},{"type":"error","name":"InvalidScore","inputs":[]},{"type":"error","name":"NotOwner","inputs":[]},{"type":"error","name":"NotTrustedPKP","inputs":[]}],"bytecode":{"object":"0x608060405234801561001057600080fd5b506040516107b33803806107b383398101604081905261002f9161008d565b6001600160a01b0381166100565760405163e6c4247b60e01b815260040160405180910390fd5b600080546001600160a01b03191633179055600180546001600160a81b0319166001600160a01b03929092169190911790556100bd565b60006020828403121561009f57600080fd5b81516001600160a01b03811681146100b657600080fd5b9392505050565b6106e7806100cc6000396000f3fe608060405234801561001057600080fd5b50600436106100885760003560e01c80638da5cb5b1161005b5780638da5cb5b14610109578063ae6c843b1461011c578063f1635efa1461012f578063f2fde38b1461014257600080fd5b806316c38b3c1461008d57806333349812146100a25780634447e910146100b55780635c975abb146100e5575b600080fd5b6100a061009b36600461048f565b610155565b005b6100a06100b036600461051d565b6101d8565b6001546100c8906001600160a01b031681565b6040516001600160a01b0390911681526020015b60405180910390f35b6001546100f990600160a01b900460ff1681565b60405190151581526020016100dc565b6000546100c8906001600160a01b031681565b6100a061012a366004610585565b610278565b6100a061013d3660046105a0565b610326565b6100a0610150366004610585565b61041b565b6000546001600160a01b03163314610180576040516330cd747160e01b815260040160405180910390fd5b60018054821515600160a01b0260ff60a01b199091161790556040517f31311016d7204faff81880133e3db244ae8a8b9ce15e83e2432258226d15f942906101cd90831515815260200190565b60405180910390a150565b600154600160a01b900460ff16156102035760405163ab35696f60e01b815260040160405180910390fd5b6001600160a01b03831661022a5760405163e6c4247b60e01b815260040160405180910390fd5b826001600160a01b031684867fc690b86668018d6999af6d417579dd982688043c95ace859498ec41aa54f30048585426040516102699392919061064a565b60405180910390a45050505050565b6000546001600160a01b031633146102a3576040516330cd747160e01b815260040160405180910390fd5b6001600160a01b0381166102ca5760405163e6c4247b60e01b815260040160405180910390fd5b6001546040516001600160a01b038084169216907fc08238709e9b5835f3e7631917066897cb07f35fd8e24ad8495849e6000a5eac90600090a3600180546001600160a01b0319166001600160a01b0392909216919091179055565b6001546001600160a01b0316331461035157604051631e52bf5160e31b815260040160405180910390fd5b600154600160a01b900460ff161561037c5760405163ab35696f60e01b815260040160405180910390fd5b6001600160a01b0384166103a35760405163e6c4247b60e01b815260040160405180910390fd5b6127108361ffff1611156103ca57604051631556136560e01b815260040160405180910390fd5b836001600160a01b031685877f297800ddc050810b5fd03696371ab7416329539ebee95d524d843056d8034a028686864260405161040b9493929190610678565b60405180910390a4505050505050565b6000546001600160a01b03163314610446576040516330cd747160e01b815260040160405180910390fd5b6001600160a01b03811661046d5760405163e6c4247b60e01b815260040160405180910390fd5b600080546001600160a01b0319166001600160a01b0392909216919091179055565b6000602082840312156104a157600080fd5b813580151581146104b157600080fd5b9392505050565b80356001600160a01b03811681146104cf57600080fd5b919050565b60008083601f8401126104e657600080fd5b50813567ffffffffffffffff8111156104fe57600080fd5b60208301915083602082850101111561051657600080fd5b9250929050565b60008060008060006080868803121561053557600080fd5b853594506020860135935061054c604087016104b8565b9250606086013567ffffffffffffffff81111561056857600080fd5b610574888289016104d4565b969995985093965092949392505050565b60006020828403121561059757600080fd5b6104b1826104b8565b60008060008060008060a087890312156105b957600080fd5b86359550602087013594506105d0604088016104b8565b9350606087013561ffff811681146105e757600080fd5b9250608087013567ffffffffffffffff81111561060357600080fd5b61060f89828a016104d4565b979a9699509497509295939492505050565b81835281816020850137506000828201602090810191909152601f909101601f19169091010190565b60408152600061065e604083018587610621565b905067ffffffffffffffff83166020830152949350505050565b61ffff85168152606060208201526000610696606083018587610621565b905067ffffffffffffffff831660408301529594505050505056fea26469706673582212209a18eeb6e15c22be29da81e512cb10f249ae1112aae88706115ca47430f8c59f64736f6c63430008130033","linkReferences":{}},"methodIdentifiers":{"gradePerformance(uint256,bytes32,address,uint16,string)":"f1635efa","owner()":"8da5cb5b","paused()":"5c975abb","setPaused(bool)":"16c38b3c","setTrustedPKP(address)":"ae6c843b","submitPerformance(uint256,bytes32,address,string)":"33349812","transferOwnership(address)":"f2fde38b","trustedPKP()":"4447e910"},"id":18}