{"abi":[{"type":"function","name":"emitSegmentProcessed","inputs":[{"name":"segmentHash","type":"bytes32","internalType":"bytes32"},{"name":"instrumentalUri","type":"string","internalType":"string"},{"name":"alignmentUri","type":"string","internalType":"string"},{"name":"translationCount","type":"uint8","internalType":"uint8"},{"name":"metadataUri","type":"string","internalType":"string"}],"outputs":[],"stateMutability":"nonpayable"},{"type":"function","name":"emitSegmentRegistered","inputs":[{"name":"segmentHash","type":"bytes32","internalType":"bytes32"},{"name":"grc20WorkId","type":"string","internalType":"string"},{"name":"spotifyTrackId","type":"string","internalType":"string"},{"name":"segmentStartMs","type":"uint32","internalType":"uint32"},{"name":"segmentEndMs","type":"uint32","internalType":"uint32"},{"name":"metadataUri","type":"string","internalType":"string"}],"outputs":[],"stateMutability":"nonpayable"},{"type":"function","name":"emitSegmentToggled","inputs":[{"name":"segmentHash","type":"bytes32","internalType":"bytes32"},{"name":"enabled","type":"bool","internalType":"bool"}],"outputs":[],"stateMutability":"nonpayable"},{"type":"function","name":"getSegmentHash","inputs":[{"name":"spotifyTrackId","type":"string","internalType":"string"},{"name":"segmentStartMs","type":"uint32","internalType":"uint32"}],"outputs":[{"name":"","type":"bytes32","internalType":"bytes32"}],"stateMutability":"pure"},{"type":"event","name":"SegmentProcessed","inputs":[{"name":"segmentHash","type":"bytes32","indexed":true,"internalType":"bytes32"},{"name":"instrumentalUri","type":"string","indexed":false,"internalType":"string"},{"name":"alignmentUri","type":"string","indexed":false,"internalType":"string"},{"name":"translationCount","type":"uint8","indexed":false,"internalType":"uint8"},{"name":"metadataUri","type":"string","indexed":false,"internalType":"string"},{"name":"timestamp","type":"uint64","indexed":false,"internalType":"uint64"}],"anonymous":false},{"type":"event","name":"SegmentRegistered","inputs":[{"name":"segmentHash","type":"bytes32","indexed":true,"internalType":"bytes32"},{"name":"grc20WorkId","type":"string","indexed":false,"internalType":"string"},{"name":"spotifyTrackId","type":"string","indexed":false,"internalType":"string"},{"name":"segmentStartMs","type":"uint32","indexed":false,"internalType":"uint32"},{"name":"segmentEndMs","type":"uint32","indexed":false,"internalType":"uint32"},{"name":"metadataUri","type":"string","indexed":false,"internalType":"string"},{"name":"registeredBy","type":"address","indexed":true,"internalType":"address"},{"name":"timestamp","type":"uint64","indexed":false,"internalType":"uint64"}],"anonymous":false},{"type":"event","name":"SegmentToggled","inputs":[{"name":"segmentHash","type":"bytes32","indexed":true,"internalType":"bytes32"},{"name":"enabled","type":"bool","indexed":false,"internalType":"bool"},{"name":"timestamp","type":"uint64","indexed":false,"internalType":"uint64"}],"anonymous":false}],"bytecode":{"object":"0x608060405234801561001057600080fd5b506105a7806100206000396000f3fe608060405234801561001057600080fd5b506004361061004c5760003560e01c80632adc8f1414610051578063c907c32814610066578063fae5264c1461008b578063fd31ffc01461009e575b600080fd5b61006461005f3660046101de565b6100b1565b005b610079610074366004610275565b6100fb565b60405190815260200160405180910390f35b6100646100993660046102c9565b610131565b6100646100ac366004610387565b610181565b60408051821515815267ffffffffffffffff4216602082015283917f2327e34f4b07185b153cae005b0f47398ff0e6ad381cddb991ada104892df724910160405180910390a25050565b600083838360405160200161011293929190610451565b6040516020818303038152906040528051906020012090509392505050565b877fd9d9eba22f0ba968a64c40c21d1bb186feff1fe529d53b1ad79037890dcd505c888888888888884260405161016f98979695949392919061049b565b60405180910390a25050505050505050565b336001600160a01b0316897f97806014a66cf21c10e00e7e2a064c48a02e8046bbe4219c62af43af9a7455a28a8a8a8a8a8a8a8a426040516101cb99989796959493929190610500565b60405180910390a3505050505050505050565b600080604083850312156101f157600080fd5b823591506020830135801515811461020857600080fd5b809150509250929050565b60008083601f84011261022557600080fd5b50813567ffffffffffffffff81111561023d57600080fd5b60208301915083602082850101111561025557600080fd5b9250929050565b803563ffffffff8116811461027057600080fd5b919050565b60008060006040848603121561028a57600080fd5b833567ffffffffffffffff8111156102a157600080fd5b6102ad86828701610213565b90945092506102c090506020850161025c565b90509250925092565b60008060008060008060008060a0898b0312156102e557600080fd5b88359750602089013567ffffffffffffffff8082111561030457600080fd5b6103108c838d01610213565b909950975060408b013591508082111561032957600080fd5b6103358c838d01610213565b909750955060608b0135915060ff8216821461035057600080fd5b90935060808a0135908082111561036657600080fd5b506103738b828c01610213565b999c989b5096995094979396929594505050565b600080600080600080600080600060c08a8c0312156103a557600080fd5b8935985060208a013567ffffffffffffffff808211156103c457600080fd5b6103d08d838e01610213565b909a50985060408c01359150808211156103e957600080fd5b6103f58d838e01610213565b909850965086915061040960608d0161025c565b955061041760808d0161025c565b945060a08c013591508082111561042d57600080fd5b5061043a8c828d01610213565b915080935050809150509295985092959850929598565b8284823760e09190911b6001600160e01b0319169101908152600401919050565b81835281816020850137506000828201602090810191909152601f909101601f19169091010190565b60a0815260006104af60a083018a8c610472565b82810360208401526104c281898b610472565b905060ff8716604084015282810360608401526104e0818688610472565b91505067ffffffffffffffff831660808301529998505050505050505050565b60c08152600061051460c083018b8d610472565b8281036020840152610527818a8c610472565b63ffffffff89811660408601528816606085015283810360808501529050610550818688610472565b91505067ffffffffffffffff831660a08301529a995050505050505050505056fea264697066735822122050744cc2d6f98ecdeb7ab3b199bcdf1bd3ac3e7085b9da8cd3405c7bc17a0e5364736f6c63430008130033","linkReferences":{}},"methodIdentifiers":{"emitSegmentProcessed(bytes32,string,string,uint8,string)":"fae5264c","emitSegmentRegistered(bytes32,string,string,uint32,uint32,string)":"fd31ffc0","emitSegmentToggled(bytes32,bool)":"2adc8f14","getSegmentHash(string,uint32)":"c907c328"},"id":24}