{"abi":[{"type":"function","name":"emitSongMetadataUpdated","inputs":[{"name":"geniusId","type":"uint32","internalType":"uint32"},{"name":"metadataUri","type":"string","internalType":"string"}],"outputs":[],"stateMutability":"nonpayable"},{"type":"function","name":"emitSongRegistered","inputs":[{"name":"geniusId","type":"uint32","internalType":"uint32"},{"name":"metadataUri","type":"string","internalType":"string"},{"name":"geniusArtistId","type":"uint32","internalType":"uint32"}],"outputs":[],"stateMutability":"nonpayable"},{"type":"function","name":"emitSongToggled","inputs":[{"name":"geniusId","type":"uint32","internalType":"uint32"},{"name":"enabled","type":"bool","internalType":"bool"}],"outputs":[],"stateMutability":"nonpayable"},{"type":"event","name":"SongMetadataUpdated","inputs":[{"name":"geniusId","type":"uint32","indexed":true,"internalType":"uint32"},{"name":"metadataUri","type":"string","indexed":false,"internalType":"string"},{"name":"updatedBy","type":"address","indexed":true,"internalType":"address"},{"name":"timestamp","type":"uint64","indexed":false,"internalType":"uint64"}],"anonymous":false},{"type":"event","name":"SongRegistered","inputs":[{"name":"geniusId","type":"uint32","indexed":true,"internalType":"uint32"},{"name":"metadataUri","type":"string","indexed":false,"internalType":"string"},{"name":"registeredBy","type":"address","indexed":true,"internalType":"address"},{"name":"geniusArtistId","type":"uint32","indexed":false,"internalType":"uint32"},{"name":"timestamp","type":"uint64","indexed":false,"internalType":"uint64"}],"anonymous":false},{"type":"event","name":"SongToggled","inputs":[{"name":"geniusId","type":"uint32","indexed":true,"internalType":"uint32"},{"name":"enabled","type":"bool","indexed":false,"internalType":"bool"},{"name":"timestamp","type":"uint64","indexed":false,"internalType":"uint64"}],"anonymous":false}],"bytecode":{"object":"0x608060405234801561001057600080fd5b50610394806100206000396000f3fe608060405234801561001057600080fd5b50600436106100415760003560e01c806301b95eaa146100465780636e3f4d9a1461005b578063c83b46441461006e575b600080fd5b61005961005436600461018f565b610081565b005b610059610069366004610214565b6100d1565b61005961007c366004610267565b610122565b60408051821515815267ffffffffffffffff4216602082015263ffffffff8416917fa3d1e25a64a76752540925b55dad083f757dc17e48614f929ab6a594182f2df2910160405180910390a25050565b336001600160a01b03168363ffffffff167fdbe2424cc5e611d51a986cc5df7fe6fa48bfe1e3e3fb7df8dc144416e61e38f6848442604051610115939291906102f5565b60405180910390a3505050565b336001600160a01b03168463ffffffff167f15f8876049dfabe8fba2cecc66b8426d0b15695ab43bc6092efddda13dce85bd858585426040516101689493929190610323565b60405180910390a350505050565b803563ffffffff8116811461018a57600080fd5b919050565b600080604083850312156101a257600080fd5b6101ab83610176565b9150602083013580151581146101c057600080fd5b809150509250929050565b60008083601f8401126101dd57600080fd5b50813567ffffffffffffffff8111156101f557600080fd5b60208301915083602082850101111561020d57600080fd5b9250929050565b60008060006040848603121561022957600080fd5b61023284610176565b9250602084013567ffffffffffffffff81111561024e57600080fd5b61025a868287016101cb565b9497909650939450505050565b6000806000806060858703121561027d57600080fd5b61028685610176565b9350602085013567ffffffffffffffff8111156102a257600080fd5b6102ae878288016101cb565b90945092506102c1905060408601610176565b905092959194509250565b81835281816020850137506000828201602090810191909152601f909101601f19169091010190565b6040815260006103096040830185876102cc565b905067ffffffffffffffff83166020830152949350505050565b6060815260006103376060830186886102cc565b905063ffffffff8416602083015267ffffffffffffffff831660408301529594505050505056fea26469706673582212205291a7e2ba80a7da5b7e0d069573e4db772c3046631406a6645064dc4c7c5c8164736f6c63430008130033","linkReferences":{}},"methodIdentifiers":{"emitSongMetadataUpdated(uint32,string)":"6e3f4d9a","emitSongRegistered(uint32,string,uint32)":"c83b4644","emitSongToggled(uint32,bool)":"01b95eaa"},"id":20}