{"abi":[{"type":"function","name":"emitTranslationAdded","inputs":[{"name":"segmentHash","type":"bytes32","internalType":"bytes32"},{"name":"languageCode","type":"string","internalType":"string"},{"name":"translationUri","type":"string","internalType":"string"},{"name":"translationSource","type":"string","internalType":"string"},{"name":"confidenceScore","type":"uint16","internalType":"uint16"},{"name":"validated","type":"bool","internalType":"bool"}],"outputs":[],"stateMutability":"nonpayable"},{"type":"function","name":"emitTranslationToggled","inputs":[{"name":"segmentHash","type":"bytes32","internalType":"bytes32"},{"name":"languageCode","type":"string","internalType":"string"},{"name":"enabled","type":"bool","internalType":"bool"}],"outputs":[],"stateMutability":"nonpayable"},{"type":"function","name":"emitTranslationUpdated","inputs":[{"name":"segmentHash","type":"bytes32","internalType":"bytes32"},{"name":"languageCode","type":"string","internalType":"string"},{"name":"translationUri","type":"string","internalType":"string"},{"name":"validated","type":"bool","internalType":"bool"}],"outputs":[],"stateMutability":"nonpayable"},{"type":"event","name":"TranslationAdded","inputs":[{"name":"segmentHash","type":"bytes32","indexed":true,"internalType":"bytes32"},{"name":"languageCode","type":"string","indexed":true,"internalType":"string"},{"name":"translationUri","type":"string","indexed":false,"internalType":"string"},{"name":"translationSource","type":"string","indexed":false,"internalType":"string"},{"name":"confidenceScore","type":"uint16","indexed":false,"internalType":"uint16"},{"name":"validated","type":"bool","indexed":false,"internalType":"bool"},{"name":"addedBy","type":"address","indexed":true,"internalType":"address"},{"name":"timestamp","type":"uint64","indexed":false,"internalType":"uint64"}],"anonymous":false},{"type":"event","name":"TranslationToggled","inputs":[{"name":"segmentHash","type":"bytes32","indexed":true,"internalType":"bytes32"},{"name":"languageCode","type":"string","indexed":true,"internalType":"string"},{"name":"enabled","type":"bool","indexed":false,"internalType":"bool"},{"name":"timestamp","type":"uint64","indexed":false,"internalType":"uint64"}],"anonymous":false},{"type":"event","name":"TranslationUpdated","inputs":[{"name":"segmentHash","type":"bytes32","indexed":true,"internalType":"bytes32"},{"name":"languageCode","type":"string","indexed":true,"internalType":"string"},{"name":"translationUri","type":"string","indexed":false,"internalType":"string"},{"name":"validated","type":"bool","indexed":false,"internalType":"bool"},{"name":"updatedBy","type":"address","indexed":true,"internalType":"address"},{"name":"timestamp","type":"uint64","indexed":false,"internalType":"uint64"}],"anonymous":false}],"bytecode":{"object":"0x608060405234801561001057600080fd5b506104b8806100206000396000f3fe608060405234801561001057600080fd5b50600436106100415760003560e01c80632f8bad721461004657806353879d0f1461005b578063dd2de33c1461006e575b600080fd5b61005961005436600461020b565b610081565b005b610059610069366004610294565b6100e1565b61005961007c366004610360565b61014a565b604051339061009390879087906103be565b6040518091039020877fdbbff7bf686aa3cd459fa6382915feaac1617be9121602ed639fcd0597242299868686426040516100d194939291906103f7565b60405180910390a4505050505050565b60405133906100f3908a908a906103be565b60405180910390208a7f8152a74c11f265d79a6f5b24b9435517e1be321760a9a7d98fe60a43eeb0854289898989898942604051610137979695949392919061042d565b60405180910390a4505050505050505050565b828260405161015a9291906103be565b60408051918290038220831515835267ffffffffffffffff421660208401529186917f1bd66ab8664a49d7694aa846e39a3236a65d038716d120d8c2a9f173d8f68aa5910160405180910390a350505050565b60008083601f8401126101bf57600080fd5b50813567ffffffffffffffff8111156101d757600080fd5b6020830191508360208285010111156101ef57600080fd5b9250929050565b8035801515811461020657600080fd5b919050565b6000806000806000806080878903121561022457600080fd5b86359550602087013567ffffffffffffffff8082111561024357600080fd5b61024f8a838b016101ad565b9097509550604089013591508082111561026857600080fd5b5061027589828a016101ad565b90945092506102889050606088016101f6565b90509295509295509295565b600080600080600080600080600060c08a8c0312156102b257600080fd5b8935985060208a013567ffffffffffffffff808211156102d157600080fd5b6102dd8d838e016101ad565b909a50985060408c01359150808211156102f657600080fd5b6103028d838e016101ad565b909850965060608c013591508082111561031b57600080fd5b506103288c828d016101ad565b90955093505060808a013561ffff8116811461034357600080fd5b915061035160a08b016101f6565b90509295985092959850929598565b6000806000806060858703121561037657600080fd5b84359350602085013567ffffffffffffffff81111561039457600080fd5b6103a0878288016101ad565b90945092506103b39050604086016101f6565b905092959194509250565b8183823760009101908152919050565b81835281816020850137506000828201602090810191909152601f909101601f19169091010190565b60608152600061040b6060830186886103ce565b93151560208301525067ffffffffffffffff9190911660409091015292915050565b60a08152600061044160a08301898b6103ce565b828103602084015261045481888a6103ce565b61ffff9690961660408401525050911515606083015267ffffffffffffffff1660809091015294935050505056fea2646970667358221220e84cd3cc71712c6ee43787a160e8f73f018f641533179999fda5a910175d246664736f6c63430008130033","linkReferences":{}},"methodIdentifiers":{"emitTranslationAdded(bytes32,string,string,string,uint16,bool)":"53879d0f","emitTranslationToggled(bytes32,string,bool)":"dd2de33c","emitTranslationUpdated(bytes32,string,string,bool)":"2f8bad72"},"id":24}