{"abi":[{"type":"function","name":"emitTranslationAdded","inputs":[{"name":"segmentHash","type":"bytes32","internalType":"bytes32"},{"name":"languageCode","type":"string","internalType":"string"},{"name":"translationUri","type":"string","internalType":"string"},{"name":"translationSource","type":"string","internalType":"string"},{"name":"confidenceScore","type":"uint16","internalType":"uint16"},{"name":"validated","type":"bool","internalType":"bool"}],"outputs":[],"stateMutability":"nonpayable"},{"type":"function","name":"emitTranslationToggled","inputs":[{"name":"segmentHash","type":"bytes32","internalType":"bytes32"},{"name":"languageCode","type":"string","internalType":"string"},{"name":"enabled","type":"bool","internalType":"bool"}],"outputs":[],"stateMutability":"nonpayable"},{"type":"function","name":"emitTranslationUpdated","inputs":[{"name":"segmentHash","type":"bytes32","internalType":"bytes32"},{"name":"languageCode","type":"string","internalType":"string"},{"name":"translationUri","type":"string","internalType":"string"},{"name":"validated","type":"bool","internalType":"bool"}],"outputs":[],"stateMutability":"nonpayable"},{"type":"event","name":"TranslationAdded","inputs":[{"name":"segmentHash","type":"bytes32","indexed":true,"internalType":"bytes32"},{"name":"languageCode","type":"string","indexed":false,"internalType":"string"},{"name":"translationUri","type":"string","indexed":false,"internalType":"string"},{"name":"translationSource","type":"string","indexed":false,"internalType":"string"},{"name":"confidenceScore","type":"uint16","indexed":false,"internalType":"uint16"},{"name":"validated","type":"bool","indexed":false,"internalType":"bool"},{"name":"addedBy","type":"address","indexed":true,"internalType":"address"},{"name":"timestamp","type":"uint64","indexed":false,"internalType":"uint64"}],"anonymous":false},{"type":"event","name":"TranslationToggled","inputs":[{"name":"segmentHash","type":"bytes32","indexed":true,"internalType":"bytes32"},{"name":"languageCode","type":"string","indexed":false,"internalType":"string"},{"name":"enabled","type":"bool","indexed":false,"internalType":"bool"},{"name":"timestamp","type":"uint64","indexed":false,"internalType":"uint64"}],"anonymous":false},{"type":"event","name":"TranslationUpdated","inputs":[{"name":"segmentHash","type":"bytes32","indexed":true,"internalType":"bytes32"},{"name":"languageCode","type":"string","indexed":false,"internalType":"string"},{"name":"translationUri","type":"string","indexed":false,"internalType":"string"},{"name":"validated","type":"bool","indexed":false,"internalType":"bool"},{"name":"updatedBy","type":"address","indexed":true,"internalType":"address"},{"name":"timestamp","type":"uint64","indexed":false,"internalType":"uint64"}],"anonymous":false}],"bytecode":{"object":"0x608060405234801561001057600080fd5b506104d4806100206000396000f3fe608060405234801561001057600080fd5b50600436106100415760003560e01c80632f8bad721461004657806353879d0f1461005b578063dd2de33c1461006e575b600080fd5b6100596100543660046101d4565b610081565b005b61005961006936600461025d565b6100d5565b61005961007c366004610329565b610132565b336001600160a01b0316867fdbbff7bf686aa3cd459fa6382915feaac1617be9121602ed639fcd05972422998787878787426040516100c5969594939291906103b0565b60405180910390a3505050505050565b336001600160a01b0316897f8152a74c11f265d79a6f5b24b9435517e1be321760a9a7d98fe60a43eeb085428a8a8a8a8a8a8a8a4260405161011f999897969594939291906103fc565b60405180910390a3505050505050505050565b837f1bd66ab8664a49d7694aa846e39a3236a65d038716d120d8c2a9f173d8f68aa5848484426040516101689493929190610468565b60405180910390a250505050565b60008083601f84011261018857600080fd5b50813567ffffffffffffffff8111156101a057600080fd5b6020830191508360208285010111156101b857600080fd5b9250929050565b803580151581146101cf57600080fd5b919050565b600080600080600080608087890312156101ed57600080fd5b86359550602087013567ffffffffffffffff8082111561020c57600080fd5b6102188a838b01610176565b9097509550604089013591508082111561023157600080fd5b5061023e89828a01610176565b90945092506102519050606088016101bf565b90509295509295509295565b600080600080600080600080600060c08a8c03121561027b57600080fd5b8935985060208a013567ffffffffffffffff8082111561029a57600080fd5b6102a68d838e01610176565b909a50985060408c01359150808211156102bf57600080fd5b6102cb8d838e01610176565b909850965060608c01359150808211156102e457600080fd5b506102f18c828d01610176565b90955093505060808a013561ffff8116811461030c57600080fd5b915061031a60a08b016101bf565b90509295985092959850929598565b6000806000806060858703121561033f57600080fd5b84359350602085013567ffffffffffffffff81111561035d57600080fd5b61036987828801610176565b909450925061037c9050604086016101bf565b905092959194509250565b81835281816020850137506000828201602090810191909152601f909101601f19169091010190565b6080815260006103c460808301888a610387565b82810360208401526103d7818789610387565b9415156040840152505067ffffffffffffffff91909116606090910152949350505050565b60c08152600061041060c083018b8d610387565b8281036020840152610423818a8c610387565b9050828103604084015261043881888a610387565b61ffff9690961660608401525050911515608083015267ffffffffffffffff1660a0909101529695505050505050565b60608152600061047c606083018688610387565b93151560208301525067ffffffffffffffff919091166040909101529291505056fea26469706673582212209351c749797db14228dc26d5c746b4ecd3b8271ff7d1c1b2553ef930c76cde6e64736f6c63430008130033","linkReferences":{}},"methodIdentifiers":{"emitTranslationAdded(bytes32,string,string,string,uint16,bool)":"53879d0f","emitTranslationToggled(bytes32,string,bool)":"dd2de33c","emitTranslationUpdated(bytes32,string,string,bool)":"2f8bad72"},"id":26}